:100000000C9434000C9451000C9451000C94510049
:100010000C9451000C9451000C9451000C9451001C
:100020000C9451000C9451000C9451000C9451000C
:100030000C9451000C942F020C9451000C9451001C
:100040000C9451000C9451000C9451000C945100EC
:100050000C9451000C9451000C9451000C945100DC
:100060000C9451000C94510011241FBECFEFD8E026
:10007000DEBFCDBF11E0A0E0B1E0EEEFF5E002C0E1
:1000800005900D92AA37B107D9F721E0AAE7B1E0B0
:1000900001C01D92A43AB207E1F70E94CD010C9471
:1000A000FD020C940000519A509888E18093C100A1
:1000B00082E08093C00086E08093C20080E190E0FF
:1000C0009093C5008093C4000895E0ECF0E0908127
:1000D00095FFFDCF8093C6000895CF93DF93EC0189
:1000E0008881882331F021960E94650089918111D1
:1000F000FBCFDF91CF91089589E091E00E946D00E0
:1001000082E20E94650086E191E00E946D0082E239
:100110000E9465008CE20E94650082E20E946500F8
:100120008AE191E00E946D0082E20E9465008CE20B
:100130000E9465008CE291E00E946D008DE00E94BB
:1001400065008AE00E9465002FEF8BE792E921505D
:1001500080409040E1F700C00000089582E391E004
:100160000E946D008DE00E9465008AE00E9465009B
:100170002FEF83ED90E3215080409040E1F700C0E5
:10018000000080E10E9465008CE20E94650080E032
:100190000E94650086E00E9465008DE40E94650073
:1001A00081E50E94650089E40E94650083E70E9462
:1001B000650084E60E94650080E70E94650083E098
:1001C0000E94650082EC0E94650080E00E9465004C
:1001D0008CE30E94650080E00E94650086E00E943A
:1001E000650083E50E94650085E60E94650089E65A
:1001F0000E94650083E70E94650081E60E94650019
:1002000089E60E94650080E00E94650088E00E9407
:10021000650088E60E9465008DE60E94650083E621
:100220000E9465008AE70E94650082E70E946500DF
:1002300084E70E94650086E70E94650087E60E94C9
:10024000650080E00E9465008CE00E94650087E602
:100250000E94650082E40E94650088E60E946500B5
:1002600086E70E94650081E70E94650085E30E94A1
:10027000650081E60E94650082E30E94650086E5D4
:100280000E94650089E60E94650087E30E94650080
:1002900089E30E9465002FEF87EA91E621508040B4
:1002A0009040E1F700C000000895AF92BF92CF9256
:1002B000DF92EF92FF920F931F93CF93DF93CDB70F
:1002C000DEB760970FB6F894DEBF0FBECDBF5C01FE
:1002D0007B0169018B01040F151F4AE0BE016F5FAE
:1002E0007F4FC80104960E94C80280E491E00E94FA
:1002F0006D00CE0101960E946D008DE00E946500A8
:100300008AE00E9465002FEF83ED90E3215080404A
:100310009040E1F700C0000080E30E94650082E0A9
:10032000800F0E94650080E00E9465008E2D0E9473
:100330006500C5010E946D00C6010E946D002FEF8F
:1003400083ED90E3215080409040E1F700C0000031
:1003500060960FB6F894DEBF0FBECDBFDF91CF9190
:100360001F910F91FF90EF90DF90CF90BF90AF90D3
:1003700008958CE491E00E946D008DE00E9465007C
:100380008AE00E9465002FEF83ED90E321508040CA
:100390009040E1F700C000000895F8940E945300D7
:1003A000E2E0F1E001900020E9F73197E250F140FE
:1003B000F0939B01E0939A01389A2098289A259807
:1003C0002D9A10929D0110929C011092A3011092FF
:1003D000A20110929F0110929E011092A101109211
:1003E000A00184E08093810081E080936F008CED18
:1003F0009BE0909385008093840078941D9902C0BF
:1004000040980AC0409A80919C0190919D0101966C
:1004100090939D0180939C018091A2019091A301F2
:1004200020919C0130919D018217930779F4892BCB
:1004300069F08091A0019091A10101969093A10192
:100440008093A00110929D0110929C0180919C01CB
:1004500090919D019093A3018093A201CFCF1F9211
:100460000F920FB60F9211242F933F934F935F93E8
:100470006F937F938F939F93AF93BF93CF93DF93AC
:10048000EF93FF9380919E0190919F01CC9709F08B
:100490004BC04AE06AE871E08091A0019091A1010F
:1004A0000E94C80260E071E08AE791E00E94BD020C
:1004B000CAE7D1E0FE0101900020E9F731978BE314
:1004C00090E0918380836AE871E0CE010E94BD02D2
:1004D0000E947C000E94AE00FE0101900020E9F71E
:1004E0003197AF014A57514060919A0170919B0139
:1004F0009E0182E091E00E9455010E94B90109909D
:100500000020E9F72197AE014A57514060E070E0C2
:100510008AE791E00E94B6021092A1011092A00118
:1005200010929F0110929E0180919E0190919F01D7
:10053000019690939F0180939E018CED9BE0909398
:10054000850080938400FF91EF91DF91CF91BF915F
:10055000AF919F918F917F916F915F914F913F915B
:100560002F910F900FBE0F901F901895DC0101C0C6
:100570006D9341505040E0F70895FB01DC010D9070
:100580000020E9F7119701900D920020E1F70895FE
:10059000BB274A3031F4992322F4BDE2909581952E
:1005A0009F4F0C94D402BB27FB015527AA27880F25
:1005B000991FAA1FA41710F0A41B83955051B9F7D7
:1005C000A05DAA3308F0A95DA193009779F7B11156
:1005D000B1931192CB010C94ED02DC01FC01672F69
:1005E00071917723E1F7329704C07C916D9370830A
:0E05F0006291AE17BF07C8F30895F894FFCFCD
:1005FE0031005A504E0041540041542B4349505340
:10060E00544152543D00544350006D31352E636CAD
:10061E006F75646D7174742E636F6D00313138387F
:10062E00320041542B43495053454E443D3436001D
:10063E0041542B43495053454E443D0041542B43A6
:10064E004950434C4F5345004154453000415445A9
:10065E00310041542B43574D4F44453D31004154D9
:0A066E002B43574D4F44453D320029
:00000001FF
